{
  "contractName": "Voting",
  "abi": [
    {
      "inputs": [
        {
          "internalType": "string[]",
          "name": "proposalNames",
          "type": "string[]"
        }
      ],
      "stateMutability": "nonpayable",
      "type": "constructor"
    },
    {
      "inputs": [],
      "name": "admin",
      "outputs": [
        {
          "internalType": "address",
          "name": "",
          "type": "address"
        }
      ],
      "stateMutability": "view",
      "type": "function"
    },
    {
      "inputs": [
        {
          "internalType": "uint256",
          "name": "",
          "type": "uint256"
        }
      ],
      "name": "proposals",
      "outputs": [
        {
          "internalType": "string",
          "name": "name",
          "type": "string"
        },
        {
          "internalType": "uint256",
          "name": "voteCount",
          "type": "uint256"
        }
      ],
      "stateMutability": "view",
      "type": "function"
    },
    {
      "inputs": [
        {
          "internalType": "address",
          "name": "",
          "type": "address"
        }
      ],
      "name": "voters",
      "outputs": [
        {
          "internalType": "bool",
          "name": "voted",
          "type": "bool"
        },
        {
          "internalType": "uint256",
          "name": "vote",
          "type": "uint256"
        },
        {
          "internalType": "bool",
          "name": "isRegistered",
          "type": "bool"
        }
      ],
      "stateMutability": "view",
      "type": "function"
    },
    {
      "inputs": [
        {
          "internalType": "address",
          "name": "voter",
          "type": "address"
        }
      ],
      "name": "registerVoter",
      "outputs": [],
      "stateMutability": "nonpayable",
      "type": "function"
    },
    {
      "inputs": [
        {
          "internalType": "uint256",
          "name": "proposal",
          "type": "uint256"
        }
      ],
      "name": "vote",
      "outputs": [],
      "stateMutability": "nonpayable",
      "type": "function"
    },
    {
      "inputs": [],
      "name": "getProposals",
      "outputs": [
        {
          "components": [
            {
              "internalType": "string",
              "name": "name",
              "type": "string"
            },
            {
              "internalType": "uint256",
              "name": "voteCount",
              "type": "uint256"
            }
          ],
          "internalType": "struct Voting.Proposal[]",
          "name": "",
          "type": "tuple[]"
        }
      ],
      "stateMutability": "view",
      "type": "function"
    },
    {
      "inputs": [],
      "name": "getWinner",
      "outputs": [
        {
          "internalType": "uint256",
          "name": "winnerProposal_",
          "type": "uint256"
        }
      ],
      "stateMutability": "view",
      "type": "function"
    }
  ],
  "bytecode": "0x608060405234801562000010575f80fd5b506040516200154338038062001543833981810160405281019062000036919062000398565b335f806101000a81548173ffffffffffffffffffffffffffffffffffffffff021916908373ffffffffffffffffffffffffffffffffffffffff1602179055505f5b8151811015620001135760026040518060400160405280848481518110620000a457620000a3620003e7565b5b602002602001015181526020015f815250908060018154018082558091505060019003905f5260205f2090600202015f909190919091505f820151815f019081620000f091906200064b565b5060208201518160010155505080806200010a906200075c565b91505062000077565b5050620007a8565b5f604051905090565b5f80fd5b5f80fd5b5f80fd5b5f601f19601f8301169050919050565b7f4e487b71000000000000000000000000000000000000000000000000000000005f52604160045260245ffd5b620001788262000130565b810181811067ffffffffffffffff821117156200019a576200019962000140565b5b80604052505050565b5f620001ae6200011b565b9050620001bc82826200016d565b919050565b5f67ffffffffffffffff821115620001de57620001dd62000140565b5b602082029050602081019050919050565b5f80fd5b5f80fd5b5f67ffffffffffffffff82111562000214576200021362000140565b5b6200021f8262000130565b9050602081019050919050565b5f5b838110156200024b5780820151818401526020810190506200022e565b5f8484015250505050565b5f6200026c6200026684620001f7565b620001a3565b9050828152602081018484840111156200028b576200028a620001f3565b5b620002988482856200022c565b509392505050565b5f82601f830112620002b757620002b66200012c565b5b8151620002c984826020860162000256565b91505092915050565b5f620002e8620002e284620001c1565b620001a3565b905080838252602082019050602084028301858111156200030e576200030d620001ef565b5b835b818110156200035c57805167ffffffffffffffff8111156200033757620003366200012c565b5b808601620003468982620002a0565b8552602085019450505060208101905062000310565b5050509392505050565b5f82601f8301126200037d576200037c6200012c565b5b81516200038f848260208601620002d2565b91505092915050565b5f60208284031215620003b057620003af62000124565b5b5f82015167ffffffffffffffff811115620003d057620003cf62000128565b5b620003de8482850162000366565b91505092915050565b7f4e487b71000000000000000000000000000000000000000000000000000000005f52603260045260245ffd5b5f81519050919050565b7f4e487b71000000000000000000000000000000000000000000000000000000005f52602260045260245ffd5b5f60028204905060018216806200046357607f821691505b6020821081036200047957620004786200041e565b5b50919050565b5f819050815f5260205f209050919050565b5f6020601f8301049050919050565b5f82821b905092915050565b5f60088302620004dd7fffffffffffffffffffffffffffffffffffffffffffffffffffffffffffffffff82620004a0565b620004e98683620004a0565b95508019841693508086168417925050509392505050565b5f819050919050565b5f819050919050565b5f620005336200052d620005278462000501565b6200050a565b62000501565b9050919050565b5f819050919050565b6200054e8362000513565b620005666200055d826200053a565b848454620004ac565b825550505050565b5f90565b6200057c6200056e565b6200058981848462000543565b505050565b5b81811015620005b057620005a45f8262000572565b6001810190506200058f565b5050565b601f821115620005ff57620005c9816200047f565b620005d48462000491565b81016020851015620005e4578190505b620005fc620005f38562000491565b8301826200058e565b50505b505050565b5f82821c905092915050565b5f620006215f198460080262000604565b1980831691505092915050565b5f6200063b838362000610565b9150826002028217905092915050565b620006568262000414565b67ffffffffffffffff81111562000672576200067162000140565b5b6200067e82546200044b565b6200068b828285620005b4565b5f60209050601f831160018114620006c1575f8415620006ac578287015190505b620006b885826200062e565b86555062000727565b601f198416620006d1866200047f565b5f5b82811015620006fa57848901518255600182019150602085019450602081019050620006d3565b868310156200071a578489015162000716601f89168262000610565b8355505b6001600288020188555050505b505050505050565b7f4e487b71000000000000000000000000000000000000000000000000000000005f52601160045260245ffd5b5f620007688262000501565b91507fffffffffffffffffffffffffffffffffffffffffffffffffffffffffffffffff82036200079d576200079c6200072f565b5b600182019050919050565b610d8d80620007b65f395ff3fe608060405234801561000f575f80fd5b506004361061007b575f3560e01c806362564c481161005957806362564c48146100e85780638e7ea5b214610106578063a3ec138d14610124578063f851a440146101565761007b565b80630121b93f1461007f578063013cf08b1461009b57806338db6dd3146100cc575b5f80fd5b610099600480360381019061009491906106ed565b610174565b005b6100b560048036038101906100b091906106ed565b6102b6565b6040516100c39291906107b1565b60405180910390f35b6100e660048036038101906100e19190610839565b61036b565b005b6100f06104df565b6040516100fd91906109b0565b60405180910390f35b61010e6105d4565b60405161011b91906109d0565b60405180910390f35b61013e60048036038101906101399190610839565b610655565b60405161014d93929190610a03565b60405180910390f35b61015e610693565b60405161016b9190610a47565b60405180910390f35b5f60015f3373ffffffffffffffffffffffffffffffffffffffff1673ffffffffffffffffffffffffffffffffffffffff1681526020019081526020015f209050806002015f9054906101000a900460ff16610204576040517f08c379a00000000000000000000000000000000000000000000000000000000081526004016101fb90610aaa565b60405180910390fd5b805f015f9054906101000a900460ff1615610254576040517f08c379a000000000000000000000000000000000000000000000000000000000815260040161024b90610b12565b60405180910390fd5b6001815f015f6101000a81548160ff02191690831515021790555081816001018190555060016002838154811061028e5761028d610b30565b5b905f5260205f2090600202016001015f8282546102ab9190610b8a565b925050819055505050565b600281815481106102c5575f80fd5b905f5260205f2090600202015f91509050805f0180546102e490610bea565b80601f016020809104026020016040519081016040528092919081815260200182805461031090610bea565b801561035b5780601f106103325761010080835404028352916020019161035b565b820191905f5260205f20905b81548152906001019060200180831161033e57829003601f168201915b5050505050908060010154905082565b5f8054906101000a900473ffffffffffffffffffffffffffffffffffffffff1673ffffffffffffffffffffffffffffffffffffffff163373ffffffffffffffffffffffffffffffffffffffff16146103f8576040517f08c379a00000000000000000000000000000000000000000000000000000000081526004016103ef90610c8a565b60405180910390fd5b60015f8273ffffffffffffffffffffffffffffffffffffffff1673ffffffffffffffffffffffffffffffffffffffff1681526020019081526020015f206002015f9054906101000a900460ff1615610485576040517f08c379a000000000000000000000000000000000000000000000000000000000815260040161047c90610cf2565b60405180910390fd5b6001805f8373ffffffffffffffffffffffffffffffffffffffff1673ffffffffffffffffffffffffffffffffffffffff1681526020019081526020015f206002015f6101000a81548160ff02191690831515021790555050565b60606002805480602002602001604051908101604052809291908181526020015f905b828210156105cb578382905f5260205f2090600202016040518060400160405290815f8201805461053290610bea565b80601f016020809104026020016040519081016040528092919081815260200182805461055e90610bea565b80156105a95780601f10610580576101008083540402835291602001916105a9565b820191905f5260205f20905b81548152906001019060200180831161058c57829003601f168201915b5050505050815260200160018201548152505081526020019060010190610502565b50505050905090565b5f805f90505f5b6002805490508110156106505781600282815481106105fd576105fc610b30565b5b905f5260205f20906002020160010154111561063d576002818154811061062757610626610b30565b5b905f5260205f2090600202016001015491508092505b808061064890610d10565b9150506105db565b505090565b6001602052805f5260405f205f91509050805f015f9054906101000a900460ff1690806001015490806002015f9054906101000a900460ff16905083565b5f8054906101000a900473ffffffffffffffffffffffffffffffffffffffff1681565b5f80fd5b5f819050919050565b6106cc816106ba565b81146106d6575f80fd5b50565b5f813590506106e7816106c3565b92915050565b5f60208284031215610702576107016106b6565b5b5f61070f848285016106d9565b91505092915050565b5f81519050919050565b5f82825260208201905092915050565b5f5b8381101561074f578082015181840152602081019050610734565b5f8484015250505050565b5f601f19601f8301169050919050565b5f61077482610718565b61077e8185610722565b935061078e818560208601610732565b6107978161075a565b840191505092915050565b6107ab816106ba565b82525050565b5f6040820190508181035f8301526107c9818561076a565b90506107d860208301846107a2565b9392505050565b5f73ffffffffffffffffffffffffffffffffffffffff82169050919050565b5f610808826107df565b9050919050565b610818816107fe565b8114610822575f80fd5b50565b5f813590506108338161080f565b92915050565b5f6020828403121561084e5761084d6106b6565b5b5f61085b84828501610825565b91505092915050565b5f81519050919050565b5f82825260208201905092915050565b5f819050602082019050919050565b5f82825260208201905092915050565b5f6108a782610718565b6108b1818561088d565b93506108c1818560208601610732565b6108ca8161075a565b840191505092915050565b6108de816106ba565b82525050565b5f604083015f8301518482035f8601526108fe828261089d565b915050602083015161091360208601826108d5565b508091505092915050565b5f61092983836108e4565b905092915050565b5f602082019050919050565b5f61094782610864565b610951818561086e565b9350836020820285016109638561087e565b805f5b8581101561099e578484038952815161097f858261091e565b945061098a83610931565b925060208a01995050600181019050610966565b50829750879550505050505092915050565b5f6020820190508181035f8301526109c8818461093d565b905092915050565b5f6020820190506109e35f8301846107a2565b92915050565b5f8115159050919050565b6109fd816109e9565b82525050565b5f606082019050610a165f8301866109f4565b610a2360208301856107a2565b610a3060408301846109f4565b949350505050565b610a41816107fe565b82525050565b5f602082019050610a5a5f830184610a38565b92915050565b7f566f746572206973206e6f7420726567697374657265642e00000000000000005f82015250565b5f610a94601883610722565b9150610a9f82610a60565b602082019050919050565b5f6020820190508181035f830152610ac181610a88565b9050919050565b7f416c726561647920766f7465642e0000000000000000000000000000000000005f82015250565b5f610afc600e83610722565b9150610b0782610ac8565b602082019050919050565b5f6020820190508181035f830152610b2981610af0565b9050919050565b7f4e487b71000000000000000000000000000000000000000000000000000000005f52603260045260245ffd5b7f4e487b71000000000000000000000000000000000000000000000000000000005f52601160045260245ffd5b5f610b94826106ba565b9150610b9f836106ba565b9250828201905080821115610bb757610bb6610b5d565b5b92915050565b7f4e487b71000000000000000000000000000000000000000000000000000000005f52602260045260245ffd5b5f6002820490506001821680610c0157607f821691505b602082108103610c1457610c13610bbd565b5b50919050565b7f4f6e6c792061646d696e2063616e2063616c6c20746869732066756e6374696f5f8201527f6e2e000000000000000000000000000000000000000000000000000000000000602082015250565b5f610c74602283610722565b9150610c7f82610c1a565b604082019050919050565b5f6020820190508181035f830152610ca181610c68565b9050919050565b7f566f74657220697320616c726561647920726567697374657265642e000000005f82015250565b5f610cdc601c83610722565b9150610ce782610ca8565b602082019050919050565b5f6020820190508181035f830152610d0981610cd0565b9050919050565b5f610d1a826106ba565b91507fffffffffffffffffffffffffffffffffffffffffffffffffffffffffffffffff8203610d4c57610d4b610b5d565b5b60018201905091905056fea2646970667358221220552f453f8b7397069b366a4af0efe44fbc90b32058bfbf628726114730600ea464736f6c63430008150033",
  "immutableReferences": {},
  "source": "// SPDX-License-Identifier: MIT\npragma solidity ^0.8.0;\n\ncontract Voting {\n    struct Voter {\n        bool voted;\n        uint vote;\n        bool isRegistered;\n    }\n\n    struct Proposal {\n        string name;\n        uint voteCount;\n    }\n\n    address public admin;\n    mapping(address => Voter) public voters;\n    Proposal[] public proposals;\n\n    constructor(string[] memory proposalNames) {\n        admin = msg.sender;\n        for (uint i = 0; i < proposalNames.length; i++) {\n            proposals.push(Proposal({\n                name: proposalNames[i],\n                voteCount: 0\n            }));\n        }\n    }\n\n    modifier onlyAdmin() {\n        require(msg.sender == admin, \"Only admin can call this function.\");\n        _;\n    }\n\n    function registerVoter(address voter) public onlyAdmin {\n        require(!voters[voter].isRegistered, \"Voter is already registered.\");\n        voters[voter].isRegistered = true;\n    }\n\n    function vote(uint proposal) public {\n        Voter storage sender = voters[msg.sender];\n        require(sender.isRegistered, \"Voter is not registered.\");\n        require(!sender.voted, \"Already voted.\");\n        sender.voted = true;\n        sender.vote = proposal;\n        proposals[proposal].voteCount += 1;\n    }\n\n    function getProposals() public view returns (Proposal[] memory) {\n        return proposals;\n    }\n\n    function getWinner() public view returns (uint winnerProposal_) {\n        uint winningVoteCount = 0;\n        for (uint p = 0; p < proposals.length; p++) {\n            if (proposals[p].voteCount > winningVoteCount) {\n                winningVoteCount = proposals[p].voteCount;\n                winnerProposal_ = p;\n            }\n        }\n    }\n}\n",
  "sourcePath": "/home/anonym/Hafiz@CyberProjects/SecureBallot/contracts/Voting.sol",
  "compiler": {
    "name": "solc",
    "version": "0.8.21+commit.d9974bed.Emscripten.clang"
  },
  "schemaVersion": "3.4.16",
  "updatedAt": "2024-06-23T09:11:23.404Z",
  "devdoc": {
    "kind": "dev",
    "methods": {},
    "version": 1
  },
  "userdoc": {
    "kind": "user",
    "methods": {},
    "version": 1
  }
}